:100000000C945D000C9485000C9485000C94850084
:100010000C9485000C9485000C9485000C9485004C
:100020000C9485000C9485000C9485000C9485003C
:100030000C9485000C9485000C9485000C9485002C
:100040000C9474020C9485000C94E4020C94BE028F
:100050000C9485000C9485000C9485000C9485000C
:100060000C9485000C94850000000008000201003B
:100070000003040700000000000000000000000072
:10008000250028002B0000000000240027002A0083
:10009000040404040404040402020202020203032E
:1000A0000303030301020408102040800102040836
:1000B0001020010204081020270511241FBECFEFD5
:1000C000D8E0DEBFCDBF22E0A4E6B1E001C01D92C2
:1000D000AE30B207E1F711E0A0E0B1E0E0EFFFE001
:1000E00002C005900D92A436B107D9F710E0CDE516
:1000F000D0E004C02197FE010E94F505CC35D10760
:10010000C9F70E9416030C94F6070C94000090E0C7
:10011000FC01EC55FF4F249180579F4FFC018491C7
:10012000882399F090E0880F991FFC01EA57FF4F50
:10013000A591B491FC01E458FF4F859194918FB73C
:10014000F894EC91E22BEC938FBF089590E0FC01C2
:10015000E859FF4F2491FC01EC55FF4F3491FC010D
:10016000E057FF4FE491EE23C9F0222339F023300A
:1001700001F1A8F4213019F1223029F1F0E0EE0F5D
:10018000FF1FE458FF4FA591B4918FB7F894EC91FD
:10019000611126C030953E233C938FBF08952730D0
:1001A000A9F02830C9F0243049F7809180008F7D74
:1001B00003C0809180008F7780938000DFCF84B56B
:1001C0008F7784BDDBCF84B58F7DFBCF8091B0006E
:1001D0008F778093B000D2CF8091B0008F7DF9CF20
:1001E0003E2BDACFAF92BF92CF92DF92EF92FF9287
:1001F0000F931F93CF93DF936C017B018B01040F4F
:10020000151FEB015E01AE18BF08C017D10759F0EA
:100210006991D601ED91FC910190F081E02DC6012C
:100220000995892B79F7C501DF91CF911F910F9126
:10023000FF90EF90DF90CF90BF90AF900895FC01BA
:10024000538D448D252F30E0842F90E0821B930B3B
:10025000541710F0CF96089501970895FC01918DE1
:10026000828D981761F0A28DAE0FBF2FB11D5D96E4
:100270008C91928D9F5F9F73928F90E008958FEF86
:100280009FEF08952FB7F8948091690190916A01CA
:10029000A0916B01B0916C012FBF80937501909379
:1002A0007601A0937701B09378018DE691E00E94EA
:1002B0002E0197FF26C02FB7F89480916901909185
:1002C0006A01A0916B01B0916C012FBF4091750143
:1002D000509176016091770170917801841B950BA4
:1002E000A60BB70B4091710150917201609173019F
:1002F0007091740184179507A607B707B0F28FEFC6
:100300009FEF0895FC01918D828D981731F0828DB9
:10031000E80FF11D858D90E008958FEF9FEF089510
:10032000FC01918D228D892F90E0805C9F4F821B74
:1003300091098F73992708958DE691E00E949001AD
:1003400021E0892B09F420E0822F089580E090E0DD
:10035000892B29F00E949C0181110C9400000895C2
:10036000FC01A48DA80FB92FB11DA35ABF4F2C912A
:10037000848D90E001968F739927848FA689B78921
:100380002C93A089B1898C91837080648C93938D18
:10039000848D981306C00288F389E02D80818F7DBB
:1003A00080830895EF92FF920F931F93CF93DF9373
:1003B000EC0181E0888F9B8D8C8D98131AC0E889A1
:1003C000F989808185FF15C09FB7F894EE89FF8970
:1003D0006083E889F98980818370806480839FBF0E
:1003E00081E090E0DF91CF911F910F91FF90EF900E
:1003F0000895F62E0B8D10E00F5F1F4F0F7311271E
:10040000E02E8C8D8E110CC00FB607FCFACFE88958
:10041000F989808185FFF5CFCE010E94B001F1CF2F
:10042000EB8DEC0FFD2FF11DE35AFF4FF0829FB7CC
:10043000F8940B8FEA89FB8980818062CFCFCF93BC
:10044000DF93EC01888D8823B9F0AA89BB89E889FC
:10045000F9898C9185FD03C0808186FD0DC00FB6A2
:1004600007FCF7CF8C9185FFF2CF808185FFEDCF20
:10047000CE010E94B001E9CFDF91CF910895FC0138
:1004800001900020E9F73197AF01481B590BBC01DF
:100490008DE691E00C94F2000F931F93CF93DF93BE
:1004A000EC0188819981009759F02A813B812617B8
:1004B000370730F081E0DF91CF911F910F910895C0
:1004C0008B016F5F7F4F0E942007009759F099833F
:1004D00088831B830A832C813D81232B59F7FC01E0
:1004E0001082E8CF80E0E7CF1F920F920FB60F92F5
:1004F00011242F933F938F939F93AF93BF9380913A
:10050000690190916A01A0916B01B0916C013091E9
:10051000680123E0230F2D3758F50196A11DB11D69
:10052000209368018093690190936A01A0936B0105
:10053000B0936C018091640190916501A091660176
:10054000B09167010196A11DB11D80936401909344
:100550006501A0936601B0936701BF91AF919F9130
:100560008F913F912F910F900FBE0F901F90189574
:1005700026E8230F0296A11DB11DD2CF1F920F9224
:100580000FB60F9211242F933F934F935F936F9366
:100590007F938F939F93AF93BF93EF93FF938DE6DA
:1005A00091E00E94B001FF91EF91BF91AF919F91B7
:1005B0008F917F916F915F914F913F912F910F900C
:1005C0000FBE0F901F9018951F920F920FB60F92AB
:1005D00011242F938F939F93EF93FF93E0917D01CD
:1005E000F0917E018081E0918301F091840182FD90
:1005F0001BC09081809186018F5F8F73209187014E
:10060000821741F0E0918601F0E0E359FE4F958FAB
:1006100080938601FF91EF919F918F912F910F9081
:100620000FBE0F901F9018958081F4CFCF93DF936A
:10063000CDB7DEB7A7970FB6F894DEBF0FBECDBF1C
:10064000789484B5826084BD84B5816084BD85B5AD
:10065000826085BD85B5816085BD80916E008160B9
:1006600080936E001092810080918100826080935F
:100670008100809181008160809381008091800061
:100680008160809380008091B10084608093B1008C
:100690008091B00081608093B00080917A00846086
:1006A00080937A0080917A00826080937A008091B2
:1006B0007A00816080937A0080917A0080688093CC
:1006C0007A001092C100E0917D01F0917E0182E0FC
:1006D0008083E0917901F0917A011082E0917B01B1
:1006E000F0917C0180E1808310928501E09181018D
:1006F000F091820186E08083E0917F01F09180019A
:10070000808180618083E0917F01F0918001808110
:1007100088608083E0917F01F09180018081806812
:100720008083E0917F01F091800180818F7D8083C3
:100730008CE00E9487008BE00E94870060E08CE0E4
:100740000E94A6008BE00E94870060E08BE00E9480
:10075000A6008AE0482E512C612C712C93E7292E9B
:1007600090E0392E20E0822E20E0922E8DE691E05E
:100770000E949001181619060CF070C01BA21AA254
:100780001DA21CA21FA21EA270E060E0CE018296F4
:100790000E944C022AA13BA181112EC021153105D6
:1007A00019F0C9010E9497061BA21AA21FA21EA23D
:1007B0001DA21CA20E9442010EA11FA197FD24C0F0
:1007C0008A30910509F189831A820F5F1F4FB801A2
:1007D000CE0182960E944C02882361F32AA13BA19C
:1007E0008EA19FA1BE016F5F7F4F820F931F0E945A
:1007F000EF071FA30EA3DECF1FA21EA261E371E0CD
:10080000C9010E94EF07D6CFCAA0DBA0C114D10452
:1008100021F076010115110571F50AA11BA18EA128
:100820009FA1892B09F46BC06CE271E0C8010E94A2
:10083000E607892B09F055C061E08CE00E94A60014
:1008400088E191E00E943F028FE291E00E943F0226
:100850008AA19BA1009711F00E9497068114910430
:1008600009F484CF0E949C01882309F47FCF0E9461
:1008700000007CCF750157018FEFA81AB80AF70165
:100880008081082E000C990B0E949005892B91F70E
:10089000015011090C0D1D1DF8018081082E000C5E
:1008A000990B0E949005892B31F00E151F0518F049
:1008B00001501109F1CFA8014F5F5F4F4E195F0939
:1008C0005FA34EA3CE14DF0420F4B701C6010E943B
:1008D000DD07EAA1FBA18EA19FA1E80FF91F1082FD
:1008E0009CCF66E471E0C8010E94E607892B39F4C9
:1008F00060E08CE00E94A60082E391E0A3CFD12CBF
:1009000070E00115110521F0C8010E945405D62E92
:10091000ED2CF72EFFEFEF16F10411F008F098CF51
:100920000D2D172F8BE00E9487000115110599F5F9
:1009300060E08BE00E94A6008AE491E00E943F0202
:100940006801110FEE08FF08F7FE6BC06DE28DE63F
:1009500091E00E94D20122273327A9012C193D09D9
:100960004E095F0919A2CE0181967C01CA01B90125
:10097000A30192010E94D305605DF70162937F019C
:10098000211531054105510589F7E114F10409F4F8
:100990005BCFC70157CF0F3F110511F461E0C9CFFD
:1009A000F1018491833019F140F48130B1F082304B
:1009B000C9F00038110594F7BBCF873011F18830AA
:1009C00041F18430B1F78091800080628093800093
:1009D000F0928B00E0928A00AFCF84B5806884BD2E
:1009E000D7BCAACF84B5806284BDD8BCA5CF809186
:1009F0008000806880938000F0928900E0928800F7
:100A00009BCF8091B00080688093B000D092B300FB
:100A100093CF8091B00080628093B000D092B400F8
:100A20008BCFA701960119A2CE0181967C01CA0144
:100A3000B901A30192010E94D305605DF7016293A1
:100A40007F01211531054105510589F79ECFEDE65E
:100A5000F1E01382128288EE93E0A0E0B0E084839C
:100A60009583A683B7838AE091E09183808385ECA8
:100A700090E09587848784EC90E09787868780EC68
:100A800090E0918B808B81EC90E0938B828B82EC59
:100A900090E0958B848B86EC90E0978B868B118E03
:100AA000128E138E148E08951F93FC0199278827A8
:100AB000BC01E89411911032E9F3193010F01E30A6
:100AC000C8F31B3251F01D3249F4689406C00E94ED
:100AD0007B05610F711D811D911D119110531A30FD
:100AE000B0F33EF490958095709561957F4F8F4F50
:100AF0009F4F1F910895592F482F372F262F660F8C
:100B0000771F881F991F660F771F881F991F620F15
:100B1000731F841F951F660F771F881F991F0895E5
:100B200091110C949905803219F089508550C8F7BD
:100B300008959927882708952F923F924F925F92A8
:100B40006F927F928F929F92AF92BF92CF92DF92DD
:100B5000EF92FF920F931F93CF93DF93CDB7DEB742
:100B6000CA1BDB0B0FB6F894DEBF0FBECDBF0994D6
:100B70002A88398848885F846E847D848C849B842D
:100B8000AA84B984C884DF80EE80FD800C811B813B
:100B9000AA81B981CE0FD11D0FB6F894DEBF0FBE6A
:100BA000CDBFED010895A1E21A2EAA1BBB1BFD01CA
:100BB0000DC0AA1FBB1FEE1FFF1FA217B307E4073C
:100BC000F50720F0A21BB30BE40BF50B661F771F94
:100BD000881F991F1A9469F7609570958095909574
:100BE0009B01AC01BD01CF010895EE0FFF1F0590E1
:100BF000F491E02D09940F931F93CF93DF938230EC
:100C0000910510F482E090E0E0910C02F0910D0269
:100C100030E020E0B0E0A0E0309799F421153105F4
:100C200009F44AC0281B390B24303105D8F58A81D4
:100C30009B816115710589F1FB0193838283FE011C
:100C400011C0408151810281138148175907E0F09A
:100C50004817590799F4109761F012960C93129760
:100C600013961C933296CF01DF91CF911F910F9174
:100C7000089500930C0210930D02F4CF2115310555
:100C800051F04217530738F0A901DB019A01BD0169
:100C9000DF01F801C1CFEF01F9CF90930D028093EE
:100CA0000C02CDCFFE01E20FF31F819391932250EE
:100CB000310939832883D7CF20910A0230910B0262
:100CC000232B41F4209102013091030130930B0258
:100CD00020930A0220910001309101012115310574
:100CE00041F42DB73EB74091040150910501241BFA
:100CF000350BE0910A02F0910B02E217F307A0F422
:100D00002E1B3F0B2817390778F0AC014E5F5F4F61
:100D10002417350748F04E0F5F1F50930B02409386
:100D20000A02819391939FCFF0E0E0E09CCFCF93B4
:100D3000DF930097E9F0FC01329713821282A091B1
:100D40000C02B0910D02ED0130E020E01097A1F40B
:100D500020813181820F931F20910A0230910B0272
:100D60002817390709F061C0F0930B02E0930A02DB
:100D7000DF91CF910895EA01CE17DF07E8F54A81A8
:100D80005B819E0141155105B1F7E901FB83EA83BF
:100D900049915991C40FD51FEC17FD0761F480816B
:100DA00091810296840F951FE9019983888382813E
:100DB00093819B838A83F0E0E0E012968D919C9171
:100DC00013970097B9F52D913C911197CD0102969B
:100DD000820F931F20910A0230910B0228173907C6
:100DE00039F6309751F510920D0210920C02B09323
:100DF0000B02A0930A02BCCFD383C28340815181EE
:100E0000840F951FC817D90761F44E5F5F4F888123
:100E10009981480F591F518340838A819B81938315
:100E200082832115310509F0B0CFF0930D02E093D4
:100E30000C029ECFFD01DC01C0CF13821282D7CFFE
:100E4000B0E0A0E0E6E2F7E00C949E058C0100978C
:100E500051F4CB010E94FB058C01C801CDB7DEB770
:100E6000E0E10C94BA05FC01E60FF71F9C0122504B
:100E70003109E217F30708F49DC0D901CD91DC9147
:100E80001197C617D70798F0C530D10530F3CE01BA
:100E900004978617970708F3C61BD70B2297C193B1
:100EA000D1936D937C93CF010E949706D6CF5B01BF
:100EB000AC1ABD0A4C018C0E9D1EA0910C02B09183
:100EC0000D02512C412CF12CE12C109731F5809121
:100ED0000A0290910B028815990509F05CC046162C
:100EE000570608F058C080910001909101010097C9
:100EF00041F48DB79EB74091040150910501841BC8
:100F0000950BE817F90708F055C0F0930B02E09332
:100F10000A02F90171836083A0CF8D919C91119792
:100F200012966C90129713967C901397A815B9059A
:100F300059F56C0142E0C40ED11CCA14DB0420F147
:100F4000AC014A195B09DA011296159780F06282AA
:100F5000738251834083D9016D937C93E114F10432
:100F600071F0D7011396FC93EE93129776CF2296E9
:100F70008C0F9D1FF90191838083F301EFCFF093D4
:100F80000D02E0930C0269CF4816590608F42C01B3
:100F90007D01D3019ACFCB010E94FB057C01009714
:100FA00049F0AE01B8010E94DD07C8010E94970612
:100FB000870153CF10E000E050CFFB01DC0102C0FD
:100FC00001900D9241505040D8F70895FB01DC018B
:100FD0008D91019080190110D9F3990B0895FB01AF
:100FE000DC0101900D920020E1F70895F894FFCF05
:100FF00000000E02800000000000D201F2001F017C
:101000001F0290012E0182014C4544204275696CFB
:10101000742D696E205475726E6564204F4E000DFC
:101020000A004C4544204275696C742D696E205449
:1010300075726E6564204F46460050574D204C45F2
:101040004420496E74656E736974792073657420E9
:04105000746F200099
:00000001FF
